{
  "_format": "hh-sol-artifact-1",
  "contractName": "MessageBoard",
  "sourceName": "contracts/MessageBoard.sol",
  "abi": [
    {
      "inputs": [
        {
          "internalType": "string",
          "name": "_message",
          "type": "string"
        }
      ],
      "name": "addMessage",
      "outputs": [],
      "stateMutability": "nonpayable",
      "type": "function"
    },
    {
      "inputs": [],
      "name": "getAllMessages",
      "outputs": [
        {
          "internalType": "string[]",
          "name": "",
          "type": "string[]"
        }
      ],
      "stateMutability": "view",
      "type": "function"
    },
    {
      "inputs": [
        {
          "internalType": "uint256",
          "name": "_index",
          "type": "uint256"
        }
      ],
      "name": "getMessage",
      "outputs": [
        {
          "internalType": "string",
          "name": "",
          "type": "string"
        }
      ],
      "stateMutability": "view",
      "type": "function"
    },
    {
      "inputs": [
        {
          "internalType": "uint256",
          "name": "",
          "type": "uint256"
        }
      ],
      "name": "messages",
      "outputs": [
        {
          "internalType": "string",
          "name": "",
          "type": "string"
        }
      ],
      "stateMutability": "view",
      "type": "function"
    }
  ],
  "bytecode": "0x6080604052348015600f57600080fd5b50610a708061001f6000396000f3fe608060405234801561001057600080fd5b506004361061004c5760003560e01c80630d80fefd1461005157806353f5e380146100815780636a226a491461009f57806386f79edb146100bb575b600080fd5b61006b600480360381019061006691906103a2565b6100eb565b604051610078919061045f565b60405180910390f35b610089610197565b604051610096919061058d565b60405180910390f35b6100b960048036038101906100b491906106e4565b610270565b005b6100d560048036038101906100d091906103a2565b6102a8565b6040516100e2919061045f565b60405180910390f35b600081815481106100fb57600080fd5b9060005260206000200160009150905080546101169061075c565b80601f01602080910402602001604051908101604052809291908181526020018280546101429061075c565b801561018f5780601f106101645761010080835404028352916020019161018f565b820191906000526020600020905b81548152906001019060200180831161017257829003601f168201915b505050505081565b60606000805480602002602001604051908101604052809291908181526020016000905b828210156102675783829060005260206000200180546101da9061075c565b80601f01602080910402602001604051908101604052809291908181526020018280546102069061075c565b80156102535780601f1061022857610100808354040283529160200191610253565b820191906000526020600020905b81548152906001019060200180831161023657829003601f168201915b5050505050815260200190600101906101bb565b50505050905090565b6000819080600181540180825580915050600190039060005260206000200160009091909190915090816102a49190610939565b5050565b6060600082815481106102be576102bd610a0b565b5b9060005260206000200180546102d39061075c565b80601f01602080910402602001604051908101604052809291908181526020018280546102ff9061075c565b801561034c5780601f106103215761010080835404028352916020019161034c565b820191906000526020600020905b81548152906001019060200180831161032f57829003601f168201915b50505050509050919050565b6000604051905090565b600080fd5b600080fd5b6000819050919050565b61037f8161036c565b811461038a57600080fd5b50565b60008135905061039c81610376565b92915050565b6000602082840312156103b8576103b7610362565b5b60006103c68482850161038d565b91505092915050565b600081519050919050565b600082825260208201905092915050565b60005b838110156104095780820151818401526020810190506103ee565b60008484015250505050565b6000601f19601f8301169050919050565b6000610431826103cf565b61043b81856103da565b935061044b8185602086016103eb565b61045481610415565b840191505092915050565b600060208201905081810360008301526104798184610426565b905092915050565b600081519050919050565b600082825260208201905092915050565b6000819050602082019050919050565b600082825260208201905092915050565b60006104c9826103cf565b6104d381856104ad565b93506104e38185602086016103eb565b6104ec81610415565b840191505092915050565b600061050383836104be565b905092915050565b6000602082019050919050565b600061052382610481565b61052d818561048c565b93508360208202850161053f8561049d565b8060005b8581101561057b578484038952815161055c85826104f7565b94506105678361050b565b925060208a01995050600181019050610543565b50829750879550505050505092915050565b600060208201905081810360008301526105a78184610518565b905092915050565b600080fd5b600080fd5b7f4e487b7100000000000000000000000000000000000000000000000000000000600052604160045260246000fd5b6105f182610415565b810181811067ffffffffffffffff821117156106105761060f6105b9565b5b80604052505050565b6000610623610358565b905061062f82826105e8565b919050565b600067ffffffffffffffff82111561064f5761064e6105b9565b5b61065882610415565b9050602081019050919050565b82818337600083830152505050565b600061068761068284610634565b610619565b9050828152602081018484840111156106a3576106a26105b4565b5b6106ae848285610665565b509392505050565b600082601f8301126106cb576106ca6105af565b5b81356106db848260208601610674565b91505092915050565b6000602082840312156106fa576106f9610362565b5b600082013567ffffffffffffffff81111561071857610717610367565b5b610724848285016106b6565b91505092915050565b7f4e487b7100000000000000000000000000000000000000000000000000000000600052602260045260246000fd5b6000600282049050600182168061077457607f821691505b6020821081036107875761078661072d565b5b50919050565b60008190508160005260206000209050919050565b60006020601f8301049050919050565b600082821b905092915050565b6000600883026107ef7fffffffffffffffffffffffffffffffffffffffffffffffffffffffffffffffff826107b2565b6107f986836107b2565b95508019841693508086168417925050509392505050565b6000819050919050565b600061083661083161082c8461036c565b610811565b61036c565b9050919050565b6000819050919050565b6108508361081b565b61086461085c8261083d565b8484546107bf565b825550505050565b600090565b61087961086c565b610884818484610847565b505050565b5b818110156108a85761089d600082610871565b60018101905061088a565b5050565b601f8211156108ed576108be8161078d565b6108c7846107a2565b810160208510156108d6578190505b6108ea6108e2856107a2565b830182610889565b50505b505050565b600082821c905092915050565b6000610910600019846008026108f2565b1980831691505092915050565b600061092983836108ff565b9150826002028217905092915050565b610942826103cf565b67ffffffffffffffff81111561095b5761095a6105b9565b5b610965825461075c565b6109708282856108ac565b600060209050601f8311600181146109a35760008415610991578287015190505b61099b858261091d565b865550610a03565b601f1984166109b18661078d565b60005b828110156109d9578489015182556001820191506020850194506020810190506109b4565b868310156109f657848901516109f2601f8916826108ff565b8355505b6001600288020188555050505b505050505050565b7f4e487b7100000000000000000000000000000000000000000000000000000000600052603260045260246000fdfea2646970667358221220eecc8383afcb6e0b334096a6a2f47cc8d9c77bcbaabdb0004ca61432d50e997864736f6c634300081c0033",
  "linkReferences": {},
  "deployedLinkReferences": {}
}